{
  "_format": "hh-sol-artifact-1",
  "contractName": "DegreeSystem",
  "sourceName": "contracts/DegreeSystem.sol",
  "abi": [
    {
      "inputs": [],
      "stateMutability": "nonpayable",
      "type": "constructor"
    },
    {
      "anonymous": false,
      "inputs": [
        {
          "indexed": false,
          "internalType": "string",
          "name": "rollNumber",
          "type": "string"
        },
        {
          "indexed": false,
          "internalType": "string",
          "name": "name",
          "type": "string"
        },
        {
          "indexed": true,
          "internalType": "address",
          "name": "university",
          "type": "address"
        }
      ],
      "name": "DegreeIssued",
      "type": "event"
    },
    {
      "anonymous": false,
      "inputs": [
        {
          "indexed": false,
          "internalType": "string",
          "name": "rollNumber",
          "type": "string"
        },
        {
          "indexed": false,
          "internalType": "bool",
          "name": "isValid",
          "type": "bool"
        },
        {
          "indexed": true,
          "internalType": "address",
          "name": "verifier",
          "type": "address"
        }
      ],
      "name": "DegreeVerified",
      "type": "event"
    },
    {
      "anonymous": false,
      "inputs": [
        {
          "indexed": true,
          "internalType": "address",
          "name": "offender",
          "type": "address"
        },
        {
          "indexed": false,
          "internalType": "string",
          "name": "action",
          "type": "string"
        }
      ],
      "name": "UnauthorizedAccess",
      "type": "event"
    },
    {
      "inputs": [],
      "name": "admin",
      "outputs": [
        {
          "internalType": "address",
          "name": "",
          "type": "address"
        }
      ],
      "stateMutability": "view",
      "type": "function"
    },
    {
      "inputs": [
        {
          "internalType": "address",
          "name": "_uni",
          "type": "address"
        }
      ],
      "name": "authorizeUniversity",
      "outputs": [],
      "stateMutability": "nonpayable",
      "type": "function"
    },
    {
      "inputs": [],
      "name": "fraudAttempts",
      "outputs": [
        {
          "internalType": "uint256",
          "name": "",
          "type": "uint256"
        }
      ],
      "stateMutability": "view",
      "type": "function"
    },
    {
      "inputs": [
        {
          "internalType": "address",
          "name": "",
          "type": "address"
        }
      ],
      "name": "isUniversity",
      "outputs": [
        {
          "internalType": "bool",
          "name": "",
          "type": "bool"
        }
      ],
      "stateMutability": "view",
      "type": "function"
    },
    {
      "inputs": [
        {
          "internalType": "string",
          "name": "_rollNumber",
          "type": "string"
        },
        {
          "internalType": "string",
          "name": "_name",
          "type": "string"
        },
        {
          "internalType": "string",
          "name": "_program",
          "type": "string"
        },
        {
          "internalType": "string",
          "name": "_date",
          "type": "string"
        }
      ],
      "name": "issueDegree",
      "outputs": [],
      "stateMutability": "nonpayable",
      "type": "function"
    },
    {
      "inputs": [
        {
          "internalType": "string",
          "name": "",
          "type": "string"
        }
      ],
      "name": "ledger",
      "outputs": [
        {
          "internalType": "string",
          "name": "studentName",
          "type": "string"
        },
        {
          "internalType": "string",
          "name": "programName",
          "type": "string"
        },
        {
          "internalType": "string",
          "name": "studentID",
          "type": "string"
        },
        {
          "internalType": "string",
          "name": "issueDate",
          "type": "string"
        },
        {
          "internalType": "bool",
          "name": "exists",
          "type": "bool"
        },
        {
          "internalType": "bool",
          "name": "isRevoked",
          "type": "bool"
        }
      ],
      "stateMutability": "view",
      "type": "function"
    },
    {
      "inputs": [
        {
          "internalType": "string",
          "name": "_rollNumber",
          "type": "string"
        }
      ],
      "name": "revokeDegree",
      "outputs": [],
      "stateMutability": "nonpayable",
      "type": "function"
    },
    {
      "inputs": [],
      "name": "totalIssued",
      "outputs": [
        {
          "internalType": "uint256",
          "name": "",
          "type": "uint256"
        }
      ],
      "stateMutability": "view",
      "type": "function"
    },
    {
      "inputs": [],
      "name": "totalVerified",
      "outputs": [
        {
          "internalType": "uint256",
          "name": "",
          "type": "uint256"
        }
      ],
      "stateMutability": "view",
      "type": "function"
    },
    {
      "inputs": [
        {
          "internalType": "string",
          "name": "_rollNumber",
          "type": "string"
        }
      ],
      "name": "verifyDegree",
      "outputs": [
        {
          "internalType": "string",
          "name": "",
          "type": "string"
        }
      ],
      "stateMutability": "nonpayable",
      "type": "function"
    }
  ],
  "bytecode": "0x608060405260006003556000600455600060055534801561001f57600080fd5b50336000806101000a81548173ffffffffffffffffffffffffffffffffffffffff021916908373ffffffffffffffffffffffffffffffffffffffff16021790555060018060003373ffffffffffffffffffffffffffffffffffffffff1673ffffffffffffffffffffffffffffffffffffffff16815260200190815260200160002060006101000a81548160ff021916908315150217905550611763806100c66000396000f3fe608060405234801561001057600080fd5b506004361061009e5760003560e01c8063cdc2d17011610066578063cdc2d1701461015e578063dd9947a11461018e578063f5be3193146101aa578063f851a440146101c8578063fe9eba15146101e65761009e565b8063410fdcde146100a3578063535d9b42146100bf5780636581a3de146100f4578063a5dc2f4314610110578063b9730cde1461012e575b600080fd5b6100bd60048036038101906100b89190610c7a565b610204565b005b6100d960048036038101906100d49190610d51565b6104d5565b6040516100eb96959493929190610e34565b60405180910390f35b61010e60048036038101906101099190610d51565b610761565b005b610118610861565b6040516101259190610eca565b60405180910390f35b61014860048036038101906101439190610f43565b610867565b6040516101559190610f70565b60405180910390f35b61017860048036038101906101739190610d51565b610887565b6040516101859190610f8b565b60405180910390f35b6101a860048036038101906101a39190610f43565b610a08565b005b6101b2610af0565b6040516101bf9190610eca565b60405180910390f35b6101d0610af6565b6040516101dd9190610fbc565b60405180910390f35b6101ee610b1a565b6040516101fb9190610eca565b60405180910390f35b600160003373ffffffffffffffffffffffffffffffffffffffff1673ffffffffffffffffffffffffffffffffffffffff16815260200190815260200160002060009054906101000a900460ff166102f4576005600081548092919061026890611006565b91905055503373ffffffffffffffffffffffffffffffffffffffff167f37b13c29a1a7be892be1b16465e66b164f27cf7b71cbc900441215aaf08c23756040516102b19061109a565b60405180910390a26040517f08c379a00000000000000000000000000000000000000000000000000000000081526004016102eb9061112c565b60405180910390fd5b6002846040516103049190611188565b908152602001604051809103902060040160009054906101000a900460ff161561037b576005600081548092919061033b90611006565b91905055506040517f08c379a000000000000000000000000000000000000000000000000000000000815260040161037290611237565b60405180910390fd5b6040518060c00160405280848152602001838152602001858152602001828152602001600115158152602001600015158152506002856040516103be9190611188565b908152602001604051809103902060008201518160000190816103e19190611463565b5060208201518160010190816103f79190611463565b50604082015181600201908161040d9190611463565b5060608201518160030190816104239190611463565b5060808201518160040160006101000a81548160ff02191690831515021790555060a08201518160040160016101000a81548160ff0219169083151502179055509050506003600081548092919061047a90611006565b91905055503373ffffffffffffffffffffffffffffffffffffffff167fa11b054027f63ad91555ba73a9c3574802167dba4a2483ff3bbbb3a7edd32b5385856040516104c7929190611535565b60405180910390a250505050565b60028180516020810182018051848252602083016020850120818352809550505050505060009150905080600001805461050e90611286565b80601f016020809104026020016040519081016040528092919081815260200182805461053a90611286565b80156105875780601f1061055c57610100808354040283529160200191610587565b820191906000526020600020905b81548152906001019060200180831161056a57829003601f168201915b50505050509080600101805461059c90611286565b80601f01602080910402602001604051908101604052809291908181526020018280546105c890611286565b80156106155780601f106105ea57610100808354040283529160200191610615565b820191906000526020600020905b8154815290600101906020018083116105f857829003601f168201915b50505050509080600201805461062a90611286565b80601f016020809104026020016040519081016040528092919081815260200182805461065690611286565b80156106a35780601f10610678576101008083540402835291602001916106a3565b820191906000526020600020905b81548152906001019060200180831161068657829003601f168201915b5050505050908060030180546106b890611286565b80601f01602080910402602001604051908101604052809291908181526020018280546106e490611286565b80156107315780601f1061070657610100808354040283529160200191610731565b820191906000526020600020905b81548152906001019060200180831161071457829003601f168201915b5050505050908060040160009054906101000a900460ff16908060040160019054906101000a900460ff16905086565b60008054906101000a900473ffffffffffffffffffffffffffffffffffffffff1673ffffffffffffffffffffffffffffffffffffffff163373ffffffffffffffffffffffffffffffffffffffff16146107ef576040517f08c379a00000000000000000000000000000000000000000000000000000000081526004016107e6906115b8565b60405180910390fd5b6002816040516107ff9190611188565b908152602001604051809103902060040160009054906101000a900460ff161561085e5760016002826040516108359190611188565b908152602001604051809103902060040160016101000a81548160ff0219169083151502179055505b50565b60055481565b60016020528060005260406000206000915054906101000a900460ff1681565b60606004600081548092919061089c90611006565b91905055506002826040516108b19190611188565b908152602001604051809103902060040160009054906101000a900460ff16801561090857506002826040516108e79190611188565b908152602001604051809103902060040160019054906101000a900460ff16155b1561097e573373ffffffffffffffffffffffffffffffffffffffff167f16b9b83d78c3086afef4918aabf03a9ce4692d982a61d4bdd843f2069d5d27a08360016040516109569291906115d8565b60405180910390a26040518060800160405280604781526020016116e7604791399050610a03565b6005600081548092919061099190611006565b91905055503373ffffffffffffffffffffffffffffffffffffffff167f16b9b83d78c3086afef4918aabf03a9ce4692d982a61d4bdd843f2069d5d27a08360006040516109df9291906115d8565b60405180910390a26040518060800160405280604c815260200161169b604c913990505b919050565b60008054906101000a900473ffffffffffffffffffffffffffffffffffffffff1673ffffffffffffffffffffffffffffffffffffffff163373ffffffffffffffffffffffffffffffffffffffff1614610a96576040517f08c379a0000000000000000000000000000000000000000000000000000000008152600401610a8d9061167a565b60405180910390fd5b60018060008373ffffffffffffffffffffffffffffffffffffffff1673ffffffffffffffffffffffffffffffffffffffff16815260200190815260200160002060006101000a81548160ff02191690831515021790555050565b60035481565b60008054906101000a900473ffffffffffffffffffffffffffffffffffffffff1681565b60045481565b6000604051905090565b600080fd5b600080fd5b600080fd5b600080fd5b6000601f19601f8301169050919050565b7f4e487b7100000000000000000000000000000000000000000000000000000000600052604160045260246000fd5b610b8782610b3e565b810181811067ffffffffffffffff82111715610ba657610ba5610b4f565b5b80604052505050565b6000610bb9610b20565b9050610bc58282610b7e565b919050565b600067ffffffffffffffff821115610be557610be4610b4f565b5b610bee82610b3e565b9050602081019050919050565b82818337600083830152505050565b6000610c1d610c1884610bca565b610baf565b905082815260208101848484011115610c3957610c38610b39565b5b610c44848285610bfb565b509392505050565b600082601f830112610c6157610c60610b34565b5b8135610c71848260208601610c0a565b91505092915050565b60008060008060808587031215610c9457610c93610b2a565b5b600085013567ffffffffffffffff811115610cb257610cb1610b2f565b5b610cbe87828801610c4c565b945050602085013567ffffffffffffffff811115610cdf57610cde610b2f565b5b610ceb87828801610c4c565b935050604085013567ffffffffffffffff811115610d0c57610d0b610b2f565b5b610d1887828801610c4c565b925050606085013567ffffffffffffffff811115610d3957610d38610b2f565b5b610d4587828801610c4c565b91505092959194509250565b600060208284031215610d6757610d66610b2a565b5b600082013567ffffffffffffffff811115610d8557610d84610b2f565b5b610d9184828501610c4c565b91505092915050565b600081519050919050565b600082825260208201905092915050565b60005b83811015610dd4578082015181840152602081019050610db9565b60008484015250505050565b6000610deb82610d9a565b610df58185610da5565b9350610e05818560208601610db6565b610e0e81610b3e565b840191505092915050565b60008115159050919050565b610e2e81610e19565b82525050565b600060c0820190508181036000830152610e4e8189610de0565b90508181036020830152610e628188610de0565b90508181036040830152610e768187610de0565b90508181036060830152610e8a8186610de0565b9050610e996080830185610e25565b610ea660a0830184610e25565b979650505050505050565b6000819050919050565b610ec481610eb1565b82525050565b6000602082019050610edf6000830184610ebb565b92915050565b600073ffffffffffffffffffffffffffffffffffffffff82169050919050565b6000610f1082610ee5565b9050919050565b610f2081610f05565b8114610f2b57600080fd5b50565b600081359050610f3d81610f17565b92915050565b600060208284031215610f5957610f58610b2a565b5b6000610f6784828501610f2e565b91505092915050565b6000602082019050610f856000830184610e25565b92915050565b60006020820190508181036000830152610fa58184610de0565b905092915050565b610fb681610f05565b82525050565b6000602082019050610fd16000830184610fad565b92915050565b7f4e487b7100000000000000000000000000000000000000000000000000000000600052601160045260246000fd5b600061101182610eb1565b91507fffffffffffffffffffffffffffffffffffffffffffffffffffffffffffffffff820361104357611042610fd7565b5b600182019050919050565b7f49535355414e43455f415454454d505400000000000000000000000000000000600082015250565b6000611084601083610da5565b915061108f8261104e565b602082019050919050565b600060208201905081810360008301526110b381611077565b9050919050565b7f556e617574686f72697a65643a204f6e6c79207265676973746572656420556e60008201527f697665727369746965732063616e206973737565206465677265657321000000602082015250565b6000611116603d83610da5565b9150611121826110ba565b604082019050919050565b6000602082019050818103600083015261114581611109565b9050919050565b600081905092915050565b600061116282610d9a565b61116c818561114c565b935061117c818560208601610db6565b80840191505092915050565b60006111948284611157565b915081905092915050565b7f536563757269747920426c6f636b3a2054686973204465677265652049442f4860008201527f61736820616c726561647920657869737473206f6e2074686520626c6f636b6360208201527f6861696e21000000000000000000000000000000000000000000000000000000604082015250565b6000611221604583610da5565b915061122c8261119f565b606082019050919050565b6000602082019050818103600083015261125081611214565b9050919050565b7f4e487b7100000000000000000000000000000000000000000000000000000000600052602260045260246000fd5b6000600282049050600182168061129e57607f821691505b6020821081036112b1576112b0611257565b5b50919050565b60008190508160005260206000209050919050565b60006020601f8301049050919050565b600082821b905092915050565b6000600883026113197fffffffffffffffffffffffffffffffffffffffffffffffffffffffffffffffff826112dc565b61132386836112dc565b95508019841693508086168417925050509392505050565b6000819050919050565b600061136061135b61135684610eb1565b61133b565b610eb1565b9050919050565b6000819050919050565b61137a83611345565b61138e61138682611367565b8484546112e9565b825550505050565b600090565b6113a3611396565b6113ae818484611371565b505050565b5b818110156113d2576113c760008261139b565b6001810190506113b4565b5050565b601f821115611417576113e8816112b7565b6113f1846112cc565b81016020851015611400578190505b61141461140c856112cc565b8301826113b3565b50505b505050565b600082821c905092915050565b600061143a6000198460080261141c565b1980831691505092915050565b60006114538383611429565b9150826002028217905092915050565b61146c82610d9a565b67ffffffffffffffff81111561148557611484610b4f565b5b61148f8254611286565b61149a8282856113d6565b600060209050601f8311600181146114cd57600084156114bb578287015190505b6114c58582611447565b86555061152d565b601f1984166114db866112b7565b60005b82811015611503578489015182556001820191506020850194506020810190506114de565b86831015611520578489015161151c601f891682611429565b8355505b6001600288020188555050505b505050505050565b6000604082019050818103600083015261154f8185610de0565b905081810360208301526115638184610de0565b90509392505050565b7f4f6e6c792061646d696e2063616e207265766f6b650000000000000000000000600082015250565b60006115a2601583610da5565b91506115ad8261156c565b602082019050919050565b600060208201905081810360008301526115d181611595565b9050919050565b600060408201905081810360008301526115f28185610de0565b90506116016020830184610e25565b9392505050565b7f4f6e6c792041646d696e2063616e20617574686f72697a6520756e697665727360008201527f6974696573210000000000000000000000000000000000000000000000000000602082015250565b6000611664602683610da5565b915061166f82611608565b604082019050919050565b6000602082019050818103600083015261169381611657565b905091905056fe435249544943414c205741524e494e473a2046726175642044657465637465642120446567726565206461746120646f6573206e6f74206d61746368206c6564676572207265636f7264732e535543434553533a2054686973204465677265652069732041757468656e74696320262054616d7065722d50726f6f66206f6e205072697661746520426c6f636b636861696e2ea26469706673582212207e26832b51dbc306d967b3fd900d4a3afdd8cddbc2c49259c2fba5d581f3495664736f6c63430008140033",
  "linkReferences": {},
  "deployedLinkReferences": {}
}